:020000040800F2
:1000000028430020590200083F1900083B17000848
:100010003D19000891030008B52500080000000004
:100020000000000000000000000000009D0100082A
:100030009303000800000000F1010008C51F00083C
:1000400073020008730200087302000873020008BC
:100050007302000873020008950300087302000889
:10006000730200087302000873020008730200089C
:10007000730200087302000873020008730200088C
:10008000730200087302000873020008730200087C
:10009000730200087302000873020008730200086C
:1000A00073020008B1200008730200087302000800
:1000B000730200087302000873020008730200084C
:1000C000730200087302000873020008730200083C
:1000D000730200087302000873020008A9250008D3
:1000E000730200087302000873020008730200081C
:1000F000730200087302000873020008730200080C
:1001000073020008730200087302000873020008FB
:1001100073020008730200087302000873020008EB
:1001200073020008730200087302000873020008DB
:1001300073020008730200087302000873020008CB
:1001400073020008730200087302000873020008BB
:1001500073020008730200087302000873020008AB
:10016000730200087302000873020008730200089B
:100170007302000873020008730200080000000008
:100180007302000873020008DFF80CD000F0EEF8EC
:100190000048004765270008284300202B4B1968BA
:1001A0000868B0E8F04F80F30988BFF36F8F4FF015
:1001B000000080F3118870470000000006480068C6
:1001C000006880F3088862B661B6BFF34F8FBFF353
:1001D0006F8F00DF00BF00BF08ED00E0DFF80C000C
:1001E000016841F470010160704700BF88ED00E0D4
:1001F000EFF30980BFF36F8F144B1A681EF0100FD6
:1002000008BF20ED108A20E9F04F106008B44FF0CD
:10021000500080F31188BFF34F8FBFF36F8F02F050
:100220001DFE4FF0000080F3118808BC19680868B3
:10023000B0E8F04F1EF0100F08BFB0EC108A80F34A
:100240000988BFF36F8F704700BF00BF24000020F4
:10025000EFF30580704700000648804706480047D6
:10026000FEE7FEE7FEE7FEE7FEE7FEE7FEE7FEE766
:10027000FEE7FEE75D200008890100082DE9F05F38
:100280000546002092469B46884606468146402405
:100290001BE0284641464746224600F057F85346A1
:1002A0005A46C01A914110D311461846224600F012
:1002B0003EF82D1A67EB01084F4622460120002127
:1002C00000F035F817EB00094E41201EA4F101049F
:1002D000DFDC484631462A464346BDE8F09F40EA07
:1002E00001039B0703D009E008C9121F08C0042AB4
:1002F000FAD203E011F8013B00F8013B521EF9D29B
:10030000704730B50B46014600202022012409E049
:1003100021FA02F59D4205D303FA02F5491B04FABE
:1003200002F52844151EA2F10102F1DC30BD202A9D
:1003300004DB203A00FA02F1002070479140C2F13C
:10034000200320FA03F3194390407047202A04DB6E
:10035000203A21FA02F00021704721FA02F3D0403E
:10036000C2F120029140084319467047064C074DE0
:1003700006E0E06840F0010394E807009847103475
:10038000AC42F6D3FFF704FF2C3200084C320008D1
:10039000FEE7704710B505A002F00EF901F0A4FBCE
:1003A000BDE81040012000F031B80000494E7465EE
:1003B00072727570746173212121210A000000009E
:1003C00090F83510022903D0802141650120704743
:1003D000052180F835100068016821F001010160F5
:1003E0000020704770B5044600F0FAF80546601C1E
:1003F00002D004480078044400F0F2F8401BA04208
:10040000FAD370BD6400002070470000044910B5A5
:100410000A68024202D00860FFF7F6FF10BD000034
:10042000143C01402DE9F84FDFF87CB100224FF079
:1004300001084FF0030A4FF00F090BF1040E00BF43
:100440000B6808FA02F42340A3426ED14D68022DD6
:1004500001D0122D0ED1D50800EB850CDCF8205010
:100460005607F70E09FA07F6B5430E69BE402E434C
:10047000CCF82060066855000F790AFA05FC07F0F1
:10048000030726EA0C06AF40374307604E68012E8B
:1004900005D0022E03D0112E01D0122E0ED1866867
:1004A000CF6826EA0C06AF40374387604668A6430C
:1004B0000C79C4F30014944034434460C6688C68DB
:1004C00026EA0C06AC403443C4604C68E40065D5B1
:1004D000364C256845F480452560246822F00305E4
:1004E00004F480440094324C2E19D6F8084895073D
:1004F0002F0F09FA07F5AC432E4DA84201D1002574
:1005000024E02D4DA84201D101251FE02B4DA8422A
:1005100001D102251AE02A4DA84201D1032515E098
:10052000284DA84202D1042510E037E0264DA8420C
:1005300001D105250AE0254DA84201D1062505E097
:10054000234DA84201D1072500E00825BD402543E1
:10055000C6F80858DBF800405D464E689C43F60339
:1005600000D51C432C60DEF8004075464E689C4365
:10057000B60300D51C432C600B4D08352C684E6823
:100580009C43F60200D51C432C60074D0C352C68AB
:100590004E689C43B60200D51C432C60521C102AA6
:1005A000FFF44EAFBDE8F88F003C014044380240F4
:1005B00000300140000002400004024000080240F8
:1005C000000C0240001002400014024000180240DB
:1005D000001C02400AB1816170470904FBE700007A
:1005E000014880687047000064000020024881686C
:1005F0000278114481607047640000200B4810B5F8
:10060000016841F400710160016841F4806101609A
:10061000016841F480710160032000F0A5F800201A
:1006200000F006F800F03EF8002010BD003C02404B
:1006300010B5014688B00022192000F075F8192085
:1006400000F067F813480024016841F001010160DF
:10065000006805A900F001000690684600F02EF938
:1006600000F062F90C490D4AB0FBF1F10C48491E4B
:10067000026040F2E732C0E90324C0E9011400F04F
:100680002BFE10B1012008B010BD054800F040FE5F
:10069000F9E700004438024040420F0000000140EA
:1006A000743D002010B5032000F05EF800221146D2
:1006B0006FF00B0000F038F8002211466FF00A00CE
:1006C00000F032F8002211466FF0090000F02CF81B
:1006D00000221146501F00F027F800221146101F7B
:1006E00000F022F800220F21901E00F01DF80022D9
:1006F0000F21BDE81040501E00F016B800F01F0298
:10070000012191404009800000F1E020C0F88011F3
:10071000704700F01F02012191404009800000F164
:10072000E020C0F800117047F0B40E4B1B680C4677
:10073000C3F30223C3F10705042D00D90425191DB5
:10074000072901D2002300E0DB1E012606FA05F18D
:10075000491E214099409E40761E16403143F0BC10
:1007600001F0EEB80CED00E0064900F00702086861
:100770004FF6FF03184040EA0220034A1043086086
:10078000704700000CED00E00000FA052DE9F0478D
:100790000E46050065D0DFF81481D8F80000F7B2E6
:1007A00000F00F00B04207D288F80070D8F80000BF
:1007B00000F00F00B04254D128683D4C810712D59B
:1007C000400703D5206840F4E050206028780007F7
:1007D00003D5206840F4604020602068A96820F0BC
:1007E000F000084320602878C0072DD030496868A1
:1007F0000839012812D0022813D0032811D0096823
:10080000890700292DDA216821F0030101432160C5
:10081000FFF7E6FE814641F2883A0EE00968890357
:10082000EFE709688901ECE7FFF7DAFEA0EB0901C1
:10083000514502D90320BDE8F0872068696800F0BF
:100840000C00B0EB810FEFD1D8F80010404601F05A
:100850000F01B14207D90770006800F00F00B042E5
:1008600001D00120E7E72878400705D52068E9682E
:1008700020F4E050084320602878000706D520685F
:10088000296920F4604040EAC100206000F05CF873
:100890002168084AC1F30311515CC8400649086049
:1008A0000020FFF7C5FE0020C5E70000003C024025
:1008B00008380240C4310008600000200F220260A6
:1008C0000C4A136803F003034360136803F0F0035A
:1008D0008360136803F4E053C36012684FF4E0537D
:1008E00003EAD20202610448006800F00F000860C9
:1008F0007047000008380240003C02400148006890
:10090000704700006000002004480549006809683D
:10091000044AC1F38221515CC84070476000002046
:1009200008380240D43100080448054900680968C5
:10093000044AC1F34231515CC84070476000002056
:1009400008380240D4310008154810B5006810F08E
:100950000C02144813D01449042A0FD0082A0ED1CF
:100960000F4C241F2268236802F03F025B0207D568
:100970002068C0F38810A0FB010106E0084610BD06
:100980002168C1F38811A1FB00010023FFF776FC69
:100990002168C1F30141491C4900B0FBF1F010BDD1
:1009A000083802400024F40040787D012DE9F84F1A
:1009B000050076D02878DFF8F8B2BE4CC00749D0E1
:1009C000DBF800105846C1F38101012908D0006806
:1009D000C0F3810002280AD1201D0068400206D51C
:1009E0002068800336D568680028E2D032E0686865
:1009F000B0F5803F10D0B0F5A02F206810D020F4C3
:100A000080302060206820F4802020606868A0B1D9
:100A1000FFF7E6FD06460CE0206840F48030F4E77E
:100A200040F480202060F7E7FFF7DAFD801B6428A0
:100A300073D820688003F7D50CE0FFF7D1FD064698
:100A400005E000BFFFF7CCFD801B6428F0D82068CC
:100A50008003F7D42878DFF8608280074FF0000920
:100A60003ED5DBF80010584611F00C0F09D0006895
:100A7000C0F3810002280BD18D48001F006840029E
:100A800006D42068800715D5E868012809D111E04F
:100A9000E868B8B10120C8F80000FFF7A1FD0646DC
:100AA00005E002E1FFF79CFD801B0228C0D820680A
:100AB0008007F7D52068296920F0F80040EAC100D6
:100AC00020600DE0C8F80090FFF78AFD064604E0BC
:100AD000FFF786FD801B02281FD820688007F7D407
:100AE0002878000722D5724E744869696C3671B156
:100AF00001210160FFF774FD074604E0FFF770FD78
:100B0000C01B022809D830688007F7D50EE0C0F86E
:100B10000090FFF765FD074605E083E0FFF760FD05
:100B2000C01B02287ED830688007F7D42878400799
:100B300068D5DFF87CA100270AF1380ADAF800004E
:100B4000C0000BD4DAF8001041F08051CAF8001050
:100B5000DAF80000012700F080500090584E30680D
:100B6000C00510D4306840F480703060FFF738FD65
:100B7000009005E0FFF734FD0099401A022851D893
:100B80003068C005F6D54A4EA868683601280FD0EF
:100B90000528306810D020F001003060306820F067
:100BA00004003060A868B8B1FFF71AFD00900FE0AC
:100BB000306840F00100F4E740F004003060F7E7EF
:100BC000FFF70EFD0099411A41F28830814264D846
:100BD00030688007F4D50EE0FFF702FD009007E0D3
:100BE000FFF7FEFC0099411A41F28830814254D847
:100BF00030688007F4D42FB1DAF8001021F080516A
:100C0000CAF80010A869C0B3DBF80010C1F3810175
:100C100002294AD00228484607D0C8F86000FFF7EA
:100C2000DFFC00E039E005463AE04746C8F86000DE
:100C3000FFF7D6FC064604E0FFF7D2FC801B022833
:100C40002BD820688001F7D4D5E907010843A96AA9
:100C50001C4A490802EB01416A6A41EA82110843D1
:100C600095F82C1040EA01611148001F0160012035
:100C70003866FFF7B5FC054605E014E0FFF7B0FC69
:100C8000401B022809D820688001F7D50BE000BF7F
:100C9000FFF7A6FC401B022802D90320BDE8F88F0D
:100CA00020688001F4D40020F8E70120F6E7000076
:100CB000083802400038024000004742800E474298
:100CC000007000400000FFFF10B5040002D0607902
:100CD00010B106E0012010BD00202071204600F078
:100CE0000BF8022060712068016841F00401016086
:100CF00001206071002010BD08B5006806498842D7
:100D000008D10648016841F040010160006800F028
:100D10004000009008BD0000000806503438024032
:100D200070B5040005D00025A56294F8510010B1FB
:100D300006E0012070BD84F85050204600F030F8E5
:100D4000022084F851002068016821F04001016010
:100D5000D4E901010843D4E903121143084361694E
:100D60000843218B01F400710843E1690843216ABB
:100D70000843A16A084321680860A069042101EAC8
:100D80001040616A0843216848602068C16921F405
:100D90000061C1616565012084F85100002070BDCB
:100DA000F0B50068134987B0884221D11248002469
:100DB000016841F4004101600068022500F4004030
:100DC00005901020CDE9000502AA0326062782E837
:100DD000D00069460948FFF725FB4FF4E050CDE904
:100DE000000502AA694682E8D0000548FFF71AFB11
:100DF00007B0F0BD003C0040403802400000024017
:100E0000000802402DE9F84F044640680026984645
:100E100017460D464FF00409B0F5827F01D1A06856
:100E200090B194F85000012819D04FF0010B84F8CC
:100E300050B0FFF7D5FB009094F851004FF0000A36
:100E400001280ED002267FE084F8519013460A460E
:100E50002046CDF8008000F031F9BDE8F88F02207F
:100E6000FBE7002D6FD0002F6DD084F85190C4F8AF
:100E700054A0A563A787E787C4F830A0A4F834A0DE
:100E8000A4F836A0C4F840A0C4F844A0A0684FF469
:100E90000047B84204D12068016821F48041016014
:100EA00020680168490603D4016841F040010160EF
:100EB000E068B8B133E020688168C90706D0007BDC
:100EC00005F8010BE08F401EE0870BE0B8F1000F42
:100ED00023D0B8F1FF3F05D0FFF782FB0099411AFC
:100EE00041451AD2E08F0028E5D11BE020688168D7
:100EF000C90706D0C06825F8020BE08F401EE087C6
:100F00000DE0B8F1000F08D0B8F1FF3F07D0FFF7B0
:100F100067FB0099411A414501D3032614E0E08F95
:100F20000028E3D16068B0F5827F0AD1A068B8429A
:100F300002D0B0F5806F04D12068016821F0400133
:100F40000160606D00B1012684F851B084F850A0B2
:100F5000304682E72DE9F84F044690F8500000260D
:100F6000994617460D4601280DD04FF0010B84F825
:100F700050B0FFF735FB804694F85100B246012887
:100F800004D0022694E00220BDE8F88F002D7BD02B
:100F9000002F79D0032084F85100C4F854A02563B1
:100FA000A786E786C4F838A0A4F83CA0A4F83EA021
:100FB000C4F844A0C4F840A0A068B0F5004F04D124
:100FC0002068016841F48041016020680168490699
:100FD00003D4016841F040010160E068B0F5006FA2
:100FE000606804D030B3E08E012823D03EE010B119
:100FF000E08E01281AD135F8021B206805E0206830
:101000008168890706D535F8021BC160E08E401E55
:10101000E0860BE0B9F1000F34D0B9F1FF3F05D005
:10102000FFF7DEFAA0EB080149452BD2E08E00283D
:10103000E5D11EE0216815F8010B087306E0206871
:101040008168890706D515F8011B0173E08E401EE3
:10105000E0860BE0B9F1000F14D0B9F1FF3F05D0E5
:10106000FFF7BEFAA0EB080149450BD2E08E00283D
:10107000E5D14B46012202212046CDF8008000F048
:101080000DFF10B1032613E011E042464946204609
:1010900000F0F4FE18B101262020606508E0A06889
:1010A00018B92068C16880680090606D00B10126A1
:1010B00084F851B084F850A0304665E72DE9F84F28
:1010C000044690F8500000260A9F9A4693460D4623
:1010D0004FF0010801280ED0012084F85000FFF7DE
:1010E0007FFA814694F85100616801280CD0B1F56F
:1010F000827F07D102E00220BDE8F88FA16809B91C
:10110000042801D00226BDE055B1BBF1000F07D085
:10111000BAF1000F04D094F85100012802D004E085
:101120000126AFE0052084F8510000206065C4F876
:1011300038B0A4F83EA0A4F83CA02563A4F836A0DB
:10114000A4F834A02064606420680168490603D4D0
:10115000016841F040010160E068B0F5006F60682F
:1011600004D0E8B3E08E01283BD06AE010B1E08EF5
:1011700001282ED1216835F8020BC860E08E401E90
:10118000E08626E0B8F1000F0DD0E08E58B120685F
:101190008168890707D535F8021BC160E08E401EC3
:1011A000E0864FF00008E08F58B120688168C907D9
:1011B00007D0C0682BF8020BE08F401EE0874FF08D
:1011C0000108781C05D0FFF70BFAA0EB0900B84224
:1011D00046D2E08E0028D5D1E08F0028D2D136E06B
:1011E000FFE7216815F8010B0873E08E401EE086CA
:1011F00027E000BFB8F1000F0DD0E08E58B1206895
:101200008168890707D515F8011B0173E08E401E20
:10121000E0864FF00008E08F58B120688168C90768
:1012200007D0C0680BF8010BE08F401EE0874FF03D
:101230000108781C05D0FFF7D3F9A0EB0900B842EC
:101240000ED2E08E0028D5D1E08F0028D2D13B46C7
:10125000012202212046CDF8009000F01FFE08B1C7
:1012600003260FE04A463946204600F007FE18B133
:1012700001262020606505E0A06818B92068C168D3
:1012800080680090012084F85100002084F850000C
:10129000304631E74FF0E0210428086903D020F000
:1012A00004000861704740F00400FAE710B5401EE2
:1012B000B0F1807F01D3012010BD4FF0E0246061C8
:1012C0000F21601700F03CFB0020A0610720206187
:1012D000002010BD7047704710B5040003D094F88B
:1012E000390010B107E0012010BD002084F838005B
:1012F000204600F00CF8022084F83900211D2068F7
:1013000000F0DCFE012084F83900002010BD704799
:101310000168CA6842F00102CA600068016841F0D1
:101320000101016000207047704770B504460068F5
:1013300001694FF00005C943890715D4C168C94345
:10134000890711D4E91E0161012020762068806997
:101350008007204602D0FFF7E7FF04E000F098F88E
:10136000204600F096F8257620680169C9434907B0
:1013700017D4C168C943490713D46FF00401016150
:10138000022020762068806910F4407F204602D039
:10139000FFF7CAFF04E000F07BF8204600F079F880
:1013A000257620680169C943090716D4C168C94375
:1013B000090712D46FF0080101610420207620682B
:1013C000C0698007204602D0FFF7AEFF04E000F0BE
:1013D0005FF8204600F05DF8257620680169C94372
:1013E000C90617D4C168C943C90613D46FF01001E8
:1013F0000161082020762068C06910F4407F2046F3
:1014000002D0FFF791FF04E000F042F8204600F020
:1014100040F8257620680169C943C90708D1C16829
:10142000C943C90704D1891E0161204600F032F882
:1014300020680169C943090609D4C168C94309067E
:1014400005D46FF0800101612046FFF743FF20685B
:101450000169C943490609D4C168C943490605D48D
:101460006FF040010161204600F01EF8206801691C
:10147000C94389060BD4C168C943890607D46FF0F4
:10148000200101612046BDE87040FFF724BF70BD18
:101490007047704700680349884201D1FFF7A6B83A
:1014A00070470000000001407047704770B5026847
:1014B00004461068D168536910F00F0F50D003F044
:1014C000010501F4907635435DD0C20705D0CA0509
:1014D00003D5E26B42F00102E263420705D5DA0769
:1014E00003D0E26B42F00202E263820705D5DA071D
:1014F00003D0E26B42F00402E263020705D5DA078B
:1015000003D0E26B42F00802E263E26B002A33D0C0
:10151000800604D5880602D5204600F045FE2068E6
:101520004069E16BC0F38010090700D428B320465E
:1015300000F02CFE2068416949061AD5416921F066
:1015400040014161606BA0B11B490165606BFEF712
:1015500037FF002810D0606B016DBDE87040084770
:10156000830610D58B060ED52046BDE8704000F0EE
:101570001BBE2046FFF799FF70BD2046FFF795FF81
:101580000020E06370BD030606D50B0604D5204697
:10159000BDE8704000F0A4BF4006F3D54806F1D581
:1015A000D168204621F04001D160202184F8391013
:1015B00000F0C2F870BD00007D21000870B5040085
:1015C00004D094F83900002510B106E0012070BD68
:1015D00084F83850204600F023F8242084F839009D
:1015E0002068C16821F40051C160204600F022FE4D
:1015F0002068016921F4904101612068416921F06E
:101600002A0141612068C16841F40051C160E5636D
:10161000202084F8390084F83A00002070BD0000D2
:1016200000B50068124987B088421FD1114801688F
:1016300041F4802101600068694600F48020059033
:101640004FF440600090022001900120029003209E
:101650000390072004900848FEF7E4FE00220521CD
:101660002720FFF761F82720FFF753F807B000BDE8
:1016700000480040403802400004024070472DE915
:10168000F843044690F839001F4616460D462028B8
:1016900050D1A5B19EB194F8380001284AD001205C
:1016A00084F838004FF00008C4F83C80212084F80A
:1016B0003900FEF795FFA6848146E68426E00120E6
:1016C000BDE8F883E08C401EE084A0684B46B0F58E
:1016D000805F4FF000024FF080012046009703D05A
:1016E00000F02FFFE8B90DE000F02BFFC8B9288803
:1016F0002168C0F308004860206908B16D1C05E04E
:10170000AD1C03E0216815F8010B4860E08C00284F
:10171000D8D14B46002240212046009700F011FF0F
:1017200008B10320CCE7202084F8390084F8388001
:101730000020C5E70220C3E77047FEE770B586B01A
:1017400000F074FB4FF4FA70FEF74CFE00220A2101
:101750002B2000F005F9144D2870012000F0E8FA64
:10176000012000F063FA297810A000F025FF4FF463
:101770007A70FEF737FE124E002400BF04F16400B9
:10178000C1B231550FA000F017FF641C642CF5DBCB
:1017900014220D496846FEF7A2FD0021684601F0BB
:1017A0000EF8686006B070BD70000020496E697464
:1017B00069616C697A65643A2025690A0000000055
:1017C000483E002025690A00DC31000870B51F483A
:1017D00086B00024016841F001010160016801F058
:1017E00001010591016841F002010160016801F009
:1017F00002010591016841F0040101600068144E86
:1018000000F004000590012220213046FEF7E2FEA0
:1018100020200125CDE900050320CDE902406946DD
:101820003046FEF7FFFD0B480095CDE901046946FF
:101830000948FEF7F7FD002211460620FEF774FF67
:101840000620FEF766FF06B070BD0000303802408B
:10185000000002400000111000040240084910B5C9
:10186000064808600846FFF72FFA002805D0BDE8B3
:101870001040422103A000F09EBE10BD000806509B
:10188000AC3E00202E2E2F5372632F726E672E6394
:1018900000000000114810B50F4901604FF482713B
:1018A000416000218160C1604FF480220161C0E984
:1018B00005122022C0E90721416281620A21C1622A
:1018C000FFF72EFA002805D0BDE810404F2104A0F4
:1018D00000F071BE10BD0000003C0040B03D002093
:1018E0002E2E2F5372632F7370692E630000000039
:1018F0000D4810B50B4901604FF4E1314160002102
:1019000081600C22C160C0E904128161C161FFF7EE
:1019100055FE002805D0BDE81040612103A000F06D
:101920004ABE10BD00480040083E00202E2E2F5316
:1019300072632F75736172742E630000FEE7704747
:101940000907090E002806DA00F00F0000F1E02078
:1019500080F8141D704700F1E02080F800147047F3
:101960002DE9F043DFF814918DB00E46012189F87E
:101970000010002589F801501F2189F80210174630
:10198000044689F8035089F8046030223C496846CF
:10199000FEF7A5FC1F2C37D02B2C37D0562C3AD075
:1019A0005FF0E4008DF80D005FF0C0008DF80F00CF
:1019B0008DF811508DF8217000F038FAFEF710FE06
:1019C00004466427AA212F2000F03EFA2F2000F0C1
:1019D00045F9AA2804D0FEF703FE001BB842F1D354
:1019E000FEF7FEFD054655212F2000F02DFA2F2091
:1019F00000F034F9552804D0FEF7F2FD401BB84240
:101A0000F1D30024E84613E04E20CBE76C208DF89C
:101A10000D004020CAE7D9208DF80D000020C5E751
:101A200008EB44004178104600F00EFA641CE4B262
:101A300018F81420FF2AF3D1002000F023F84C46B8
:101A400099F8030000F074F9012000F0A1F92720B3
:101A500000F004F9000604D4FEF7C2FD401BB842B2
:101A6000F5D3FEF7BDFD401BB84203D300200DB0F7
:101A7000BDE8F08326710120F9E70000780000201E
:101A8000F03100087CB50546012000F081F9D5B1A0
:101A9000BE208DF8000000F043F9052301226946BD
:101AA0001048FFF757FA00240523285D8DF804003D
:101AB000012201A90B48FFF74DFA641CE4B2102C77
:101AC000F2D300F0B3F93D2000F0C8F800F0FE01B9
:101AD0000DB1012000E00020BDE87C4001433D2025
:101AE00000F0B2B9B03D0020F0B54D4F4D4E87B07B
:101AF000387803286FD1282000F0B0F840076AD565
:101B0000012000F045F900F00BF900258DF8145084
:101B10000523012205A94448FFF71CFA8DF800505F
:101B20000523012269464048FFF76CF99DF8000043
:101B3000344686F8620096F86200422801D94220B5
:101B400001E094F8620084F862008DF804500523E7
:101B5000012201A93448FFF755F99DF8040084F8E3
:101B60006100787840B994F861003979884203D0EF
:101B700094F86100FF2803D194F86200032807D28B
:101B800084F8625000F052F900F088F807B0F0BD18
:101B900094F86200C01E04F85F0F8DF8085005230A
:101BA000012202A92048FFF72DF99DF80800607076
:101BB0008DF80C500523012203A91B48FFF722F9D9
:101BC0009DF80C0000F08001617100F04000207170
:101BD00000275F3C0DE01CE08DF81050052301222A
:101BE00004A91148FFF70EF99DF81000E0557F1C7D
:101BF000FFB294F85F00B842EED894F85F005F2817
:101C000002D294F85F00255400F010F9032000F090
:101C1000BFF8002000F010F8A6F86600B6E7000054
:101C200078000020B83E0020B03D002001494870F7
:101C3000704700007800002010B540B1012123203A
:101C400000F002F9232000F009F88007FAD52420DB
:101C500000F004F84042401010BD000001B582B011
:101C600000208DF800009DF8080000F07F008DF83E
:101C7000080000F055F80523012202A90648FFF7E5
:101C800069F90523012269460348FFF7BBF800F014
:101C9000CDF89DF800000EBDB03D0020104910B5F4
:101CA000002001F85F0F48708870C8700871487193
:101CB000A1F807002820FFF7D1FF400707D53D20F6
:101CC000FFF7CCFF40F004013D2000F0BDF84021BB
:101CD000252000F0B9F8BDE81040032000F058B806
:101CE000B83E002010B50620FEF708FD0A4800782F
:101CF000032802D0FFF7D2FF0BE0084890F86200FB
:101D000020B1012000F044F8012010BD0620FEF7AC
:101D100000FD002010BD000078000020B83E00202B
:101D2000002220210148FEF755BC000000000240BF
:101D300010B50D4CE07008B10F2100E01A211320FE
:101D400000F082F8E07838B11120FFF787FF00F04B
:101D50001F0040F0600102E0A07840F08001BDE883
:101D60001040112000F070B87800002010B528B1A4
:101D70005D215A2000F068F87C2104E055215A20AA
:101D800000F062F87021BDE810405C2000F05CB803
:101D900070B5254D04462878A04244D0052C42D287
:101DA000DFE804F03129211103000120FFF756FF7D
:101DB00000F0E30040F00C01012000F045F8E87865
:101DC00048B301200CE00120FFF748FF00F0E300DA
:101DD00040F01001012000F037F8E878D8B1002079
:101DE000FFF7C4FF17E00120FFF738FF00F0E30022
:101DF00040F008010CE00120FFF730FF00F0E301A4
:101E00000120091D05E00120FFF728FF00F0E30194
:101E1000012000F019F8287820B92720FFF71EFFCD
:101E20000006F8D52C7070BD7800002010B5012296
:101E300020210448FEF7CEFBBDE810400620FEF747
:101E400068BC00000000024013B59DF8000040F09F
:101E500080008DF80000FFF763FF0523012269462B
:101E60000548FFF777F80523012201A90248FFF78B
:101E700071F8FFF7DBFF1CBDB03D002038B50B4605
:101E8000009204460022802100F008F8002804D0C7
:101E9000606D40F020006065032038BD2DE9F04101
:101EA0001D4617460E460446DDF8188035E0681CCE
:101EB00033D02DB1FEF794FBA0EB0800A8422CD341
:101EC0002068416821F0E00141606068B0F5827FE0
:101ED0000BD1A068B0F5004F02D0B0F5806F04D1EF
:101EE0002068016821F040010160A06AB0F5005F40
:101EF0000AD1206801684DF6FF7211400160206828
:101F0000016841F400510160012084F85100002073
:101F100084F850000320BDE8F0812068806836EA2C
:101F2000000004D00020B842C1D10020F3E7012016
:101F3000F9E70000144D15A000F03EFBFFF7D2FEBC
:101F4000E0B195F86000022818D195F8601012A051
:101F500000F032FB002405E0295D16A000F02CFB08
:101F6000641CE4B295F85F00A042F5D810A000F020
:101F700023FBB5F9661010A000F01EFB4FF4FA70B9
:101F800000F007FCD7E70000B83E00204172206750
:101F9000617661753F0A0000476F742044415441E7
:101FA000212066726F6D204E6F64653A2025690AA4
:101FB0002000000025690A00525353493A20256940
:101FC0000A20000000F0F1BB10B5224892B00024B6
:101FD000016841F080510160006800F0805011906C
:101FE0001D48016841F4804101600068012100F44E
:101FF00080401190022003911021009004910690DE
:10200000CDE90741C021CDE9091004200B906846B5
:10201000FEF7CCFC00B1FEE70F20CDE90C040E94D6
:102020000F9400210CA81094FEF7B0FB00B1FEE75E
:10203000FEF764FC4FF47A71B0FBF1F0FFF736F96C
:102040000420FFF727F900220F21501EFEF76CFB3A
:1020500012B010BD403802400070004010480168C6
:1020600041F4700101600F48016841F00101016015
:102070000C4A00210832116002680B4B1A400260C2
:10208000031D0A4A1A60026822F480220260054891
:102090000C30016002495806803908607047000022
:1020A00088ED00E000380240FFFFF6FE103000240B
:1020B0000148FFF73AB90000743D0020F0B502680E
:1020C000234B244D244E254F254C4FF0804C9842F5
:1020D00009D0604507D0A84205D0B04203D0B8422D
:1020E00001D0A04204D122F0700E4A6842EA0E02EA
:1020F00098421BD0604519D0A84217D0B04215D0E5
:10210000B84213D0A04211D0164DA8420ED0164DA1
:10211000A8420BD0154DA84208D0154DA84205D0B5
:10212000144DA84202D0144DA84203D122F44075A8
:10213000CA682A4302608A68C2620A688262984258
:1021400001D0A04201D10969016301214161F0BDC3
:10215000000001400004004000080040000C004066
:10216000000401400040014000440140004801409B
:1021700000180040001C00400020004010B5806B9B
:102180000021C185C184FFF790F910BD0168CA68BC
:1021900022F49072CA6001684A6922F001024A6121
:1021A000202180F83A10704710B590F83A10222993
:1021B00001D0022010BD8168B1F5805F11D00169A6
:1021C000002901681FD0496801F07F03816A4A1C19
:1021D00082620B70C18D491E0904090CC18518D09B
:1021E00026E00269816A002A0268526805D0D2B2EC
:1021F0000A80816A491C8162ECE7C2F308020A8006
:10220000816A891CF7E74A68816A4B1C83620A70FD
:10221000E0E70168CA6822F49072CA6001684A69FE
:1022200022F001024A61202180F83A10FFF726FAD5
:10223000002010BD2DE9F04104460068016921F439
:102240004052E168114301612168C86849F20C629B
:1022500090432369A268E5691A4363692B431A43D3
:102260000243CA602168486920F44072A0691043A3
:102270004861E1696425B1F5004F9748974A2168A4
:102280004FF032083FD0914201D081427CD1FEF71D
:102290004BFB00EBC00101EB001061688900B0FB53
:1022A000F1F6FEF741FB00EBC00101EB00106168A5
:1022B0008900B0FBF1F0B0FBF5F06FF01801484376
:1022C00006EB800108EB0110B0FBF5F000F0F00622
:1022D000FEF72AFB00EBC00101EB001061688900EA
:1022E000B0FBF1F0B0FBF5F006EB0016FEF71CFBBF
:1022F00000EBC00101EB001061688900B0FBF1F751
:10230000FEF712FBD2E0914201D081423DD1FEF7AF
:102310000BFB00EBC00101EB001061684900B0FB52
:10232000F1F0B0FBF5F00601FEF7FEFA00EBC0019C
:1023300001EB001061684900B0FBF1F7FEF7F4FA19
:1023400000EBC00101EB001061684900B0FBF1F047
:10235000B0FBF5F06FF01801484307EB800108EB84
:10236000C100B0FBF5F000F0F80006EB4006FEF708
:10237000DBFA00EBC00101EB001061684900B0FB23
:10238000F1F7FEF7D1FA3CE055E0FEF7BDFA00EBBD
:10239000C00101EB001061684900B0FBF1F0B0FB37
:1023A000F5F00601FEF7B0FA00EBC00101EB0010FA
:1023B00061684900B0FBF1F7FEF7A6FA00EBC00137
:1023C00001EB001061684900B0FBF1F0B0FBF5F0E3
:1023D0006FF01801484307EB800108EBC100B0FB28
:1023E000F5F000F0F80006EB4006FEF78DFA00EB82
:1023F000C00101EB001061684900B0FBF1F7FEF786
:1024000083FA00EBC00101EB001061684900B0FBEA
:10241000F1F0B0FBF5F06FF01801484307EB8001D5
:1024200008EBC100B0FBF5F000F007002168304474
:102430008860BDE8F081FEF767FA00EBC00101EBB0
:10244000001061688900B0FBF1F6FEF75DFA00EB61
:10245000C00101EB001061688900B0FBF1F0B0FB36
:10246000F5F06FF01801484306EB800108EB01100E
:10247000B0FBF5F000F0F006FEF746FA00EBC00105
:1024800001EB001061688900B0FBF1F0B0FBF5F0E2
:1024900006EB0016FEF738FA00EBC00101EB001066
:1024A00061688900B0FBF1F7FEF72EFA00EBC0017E
:1024B00001EB001061688900B0FBF1F0B0FBF5F0B2
:1024C0006FF01801484307EB800108EB0110B0FBE7
:1024D000F5F000F00F00A9E70014014000100140E2
:1024E00090F83910212901D0022070478168B1F598
:1024F000805F016A0BD04A1C026202680978516051
:10250000C18C491E0904090CC1840ED017E009884A
:102510000268C1F30801516001690029016A02D013
:10252000491C0162ECE7891CFBE70168CA6822F0DC
:102530008002CA600068C16841F04001C1600020AB
:1025400070472DE9F041984617460E460446069D11
:102550001DE0681C1BD02DB1FEF742F8A0EB08006F
:10256000A84214D92068C16821F4D071C1602068E4
:10257000416921F001014161202084F8390084F88B
:102580003A00002084F838000320BDE8F08120687C
:10259000006836EA000004D00020B842D9D00020FC
:1025A000F3E70120F9E700000148FEF77FBF0000D4
:1025B000083E0020FEE7FEE70FB4054B10B503A967
:1025C000044A029800F018F810BC5DF814FB0000F3
:1025D0004D2700088000002002E008C8121F08C133
:1025E000002AFAD170477047002001E001C1121F94
:1025F000002AFBD1704700002DE9FF4F89B09B46B0
:102600000446002506E025280BD05A460B99904732
:10261000641C6D1C20780028F5D10DB02846BDE85B
:10262000F08F0027B8460122474900E0074314F81D
:10263000013F203B02FA03F00842F7D120782E2810
:1026400019D114F8010F47F004072A280ED06FF0B3
:102650002F022078A0F1300109290CD808EB88015D
:1026600002EB410100EB0108641CF2E70A98641CCC
:1026700050F8048B0A9020780028CED0642808D027
:10268000692806D075281ED05A460B9990476D1CB4
:1026900058E00A994FF00A0901C90A91002802DAA4
:1026A00040422D2102E0390504D52B218DF8201060
:1026B000012103E0F90704D02021F7E78A4608AE9C
:1026C0000DE00021FAE70A994FF00A0901C90A91C1
:1026D000F7E74946FDF715FE303106F8011D0028E1
:1026E000F7D1ADEB060000F12009780701D44FF0D7
:1026F0000108C84502DDA8EB090000E00020804683
:10270000002706E008A85A46C05D0B9990476D1C4B
:102710007F1C5745F6DB04E030205A460B99904762
:102720006D1CB8F10001A8F10108F5DC05E016F810
:10273000010B5A460B9990476D1CB9F10001A9F1A4
:102740000109F4DC641C65E70928010013B5642362
:10275000012269460248FEF792FF00981CBD000066
:10276000083E0020FDF74AFFFFF72EFCFFF72EF88A
:10277000FFF774F8FFF78EF8FFF7BAF8FEF7DEFF01
:1027800000F00EF8FEE701460020842900D0C81CA6
:10279000704710B500B9012000F0FEFA002010BD0E
:1027A00010B500F01FFB002010BD10B500F036FC86
:1027B000012803D0BDE8104000F0EEBB10BD3EB5CF
:1027C00004460D46B0F90800FFF7DDFF02A9CDE988
:1027D0000001208A2B4682B2D4E9001000F0F2FBFF
:1027E000012801D000203EBD02983EBD2DE9F041F8
:1027F000184C0F460546E6682068001D00F016FAE2
:1028000038B9206890F82C10012088402169814354
:102810002161681C07D137B12168BDE8F0410E483D
:10282000091D00F03BBA20683544B5424560216877
:1028300005D2A06BBDE8F041091D00F017BA606B2E
:10284000091D00F013FAA06A854200D2A562BDE816
:10285000F081000024000020603D00202DE9F041BF
:10286000054600F027FA2E4CA068401CA0602068A6
:102870002C4F10B1606940B32DE02560A06801289D
:1028800029D1002606EB860007EB800000F0E0F976
:10289000761C072EF6D323488C3000F0D9F9214856
:1028A000A03000F0D5F91F48B43000F0D1F91D4830
:1028B000C83000F0CDF91B48DC3000F0C9F91948E8
:1028C0008C3060631430A06305E02068E96AC06A58
:1028D000884200D82560606A401C6062E96A012075
:1028E000226988401043206101EB810007EB8000E2
:1028F000291D00F0D3F900F0FDF9606900280CD023
:102900002068E96AC06A884207D207494FF08050C0
:102910000860BFF34F8FBFF36F8FBDE8F0810000F9
:1029200024000020843C002004ED00E070B5114E2E
:10293000114C17E000F08AFA3068B8B100F0E0FB03
:1029400000F0B8F9F068C568281D00F06FF9A068BC
:10295000401EA0606068401E606000F0CBF9284611
:1029600000F00CF860680028E4D170BD00F0C8FBEE
:10297000F8E700004C3D00202400002010B504467C
:10298000006B00F0CBF92046BDE8104000F0C6B95E
:1029900010484FF47051420706D0C01D0D4920F079
:1029A0000700411AC1F570510B4A00230144C2E9E6
:1029B00000030839103A21F0070111604B600B60E9
:1029C0000B1AC0E9001393604FF000405360D060D1
:1029D00070470000840000201C000020074C4FF0CE
:1029E0008056074DFFF7A2FF20680128FAD92E6014
:1029F000BFF34F8FBFF36F8FF4E70000843C0020DC
:102A000004ED00E02DE9F0479A46DDE909848146AE
:102A10006FF00303206B03EB82021044089D20F04B
:102A20000706700707D0502080F31188BFF34F8F3F
:102A3000BFF36F8FFEE723180A5C83F834200A5C2B
:102A400012B1401C1028F6D3002784F84370072DDC
:102A500000D30625E562C4E91157201D00F003F9F3
:102A600004F1180000F0FFF82461C5F1070064626A
:102A7000A061E76484F8507052464946304600F041
:102A8000BFF82060B8F1000F01D0C8F80040BDE8E1
:102A9000F087000030B5114900E011460A68824213
:102AA000FBD34B685C18844203D1406818444860EB
:102AB000084643681C18944209D1084C103C24680D
:102AC000A24209D052681A4442600A681268026041
:102AD000814200D0086030BD0460F9E71C0000208E
:102AE0000648416B096829B1416BC968C9684968E2
:102AF000816270474FF0FF31FAE7000024000020A8
:102B000008484068401C4FF0500080F3118804D002
:102B1000BFF34F8FBFF36F8FFEE7BFF34F8FBFF34E
:102B20006F8FFEE7000000202DE9F04105460027E9
:102B300000F08CF9314E306808B9FFF729FFF068D2
:102B400005424BD1C5B3083568070ED005F0070024
:102B5000C0F108000544680707D0502080F31188B1
:102B6000BFF34F8FBFF36F8FFEE72DB370688542C1
:102B700034D82248103001460C6801E020460C464B
:102B80006168A94202D221680029F7D131688C42DC
:102B900024D007682168016060680837411B10294C
:102BA0000FD96019420708D0502080F31188BFF375
:102BB0004F8FBFF36F8FFEE710E041606560FFF756
:102BC00069FF61687068401A7060B268904200D214
:102BD000B060F06801430020C4E9000100F090FA01
:102BE000780707D0502080F31188BFF34F8FBFF3D1
:102BF0006F8FFEE73846BDE8F08100000C00002032
:102C000010B5031F4FF080741C601B1F21F00101E1
:102C10001960191F044B0B6014390A60091F6FF00B
:102C2000020244380A6010BD012B0008D0E90132CD
:102C300001699A60D0E901235A604A68824201D151
:102C400082684A60002202610868401E086070477E
:102C500000F108014FF0FF32C0E90112C1600161CB
:102C600000210160704700210161704730B50B6899
:102C70005A1C02D000F1080202E0026904E0224678
:102C8000546825689D42FAD953684B6099608A6000
:102C9000516008610168491C016030BD42684A60AA
:102CA00093688B6093685960916008610168491C62
:102CB00001607047502080F31188BFF34F8FBFF33E
:102CC0006F8F0A494868401C486001280CD10848A9
:102CD000006810F0FF0F07D0502080F31188BFF379
:102CE0004F8FBFF36F8FFEE770470000000000209A
:102CF00004ED00E00849486828B1401E486001D151
:102D000080F311887047502080F31188BFF34F8FF4
:102D1000BFF36F8FFEE700000000002070B50028B1
:102D200027D0144DA0F108046168E868014207D17A
:102D3000502080F31188BFF34F8FBFF36F8FFEE7F2
:102D400022683AB1502080F31188BFF34F8FBFF350
:102D50006F8FFEE78143616000F078F86068696812
:102D6000084468602046FFF795FEBDE8704000F01B
:102D7000C7B970BD0C00002006484FF47A71006896
:102D8000B0FBF1F14FF0E020491E416107210161E4
:102D9000704700006000002010B5020014D00F48FA
:102DA000006B38B1502080F31188BFF34F8FBFF311
:102DB0006F8FFEE700F04AF800211046FFF716FD7E
:102DC00000F09EF9002807D105494FF080500860B7
:102DD000BFF34F8FBFF36F8F10BD000024000020A2
:102DE00004ED00E01CB515480024CDE90040234661
:102DF000802213A1144800F0E5F8012809D0401CF6
:102E00001AD1502080F31188BFF34F8FBFF36F8F1B
:102E1000FEE7502080F31188BFF34F8FBFF36F8F11
:102E200006484FF0FF312C38816201214161C460B6
:102E3000BDE81C4000F040B81CBD00005000002060
:102E400049444C4500000000DD2900080248016BA0
:102E5000491C016370470000240000201448016BE6
:102E600011B10121C16170470021C1610169B1FA4D
:102E700081F1C1F11F0101EB81020E4951F82230AD
:102E80006BB101EB820101F108034A6852684A60A4
:102E90009A4201D152684A60D1680160704750205F
:102EA00080F31188BFF34F8FBFF36F8FFEE70000F1
:102EB00024000020843C00201CB532480168324ABE
:102EC000914207D1502080F31188BFF34F8FBFF399
:102ED0006F8FFEE700682C49491E884207D15020B9
:102EE00080F31188BFF34F8FBFF36F8FFEE7274941
:102EF00008780190FF20087008788DF800009DF890
:102F000000009DF8002000F0F000904207D0502013
:102F100080F31188BFF34F8FBFF36F8FFEE79DF8EB
:102F200000001B4A00F0500010700720906005E080
:102F30009DF800305B008DF80030401E9DF8003099
:102F40001B06F5D4000200F4E06090600198087060
:102F50000C482030016841F470010160016841F0C3
:102F600070410160FFF708FF00205060FDF736F95F
:102F70000848016841F040410160FDF71FF9002059
:102F80001CBD000000ED00E071C20F4100E400E054
:102F90000000002034EF00E010B5502080F31188CD
:102FA000BFF34F8FBFF36F8F00F046F818B104499D
:102FB0004FF080500860002080F3118810BD0000A1
:102FC00004ED00E02DE9FF5F8346DDE90E879946B9
:102FD00016468A469000FFF7A7FD05001AD0542038
:102FE000FFF7A2FD040012D025630021CDE90241C4
:102FF000CDE900874B46324651465846FFF702FD61
:103000002046FFF72BFC012004B0BDE8F09F2846C6
:10301000FFF784FE4FF0FF30F6E7000005484169F6
:1030200019B1006B18B100207047012070470220D1
:1030300070470000240000202DE9F0412E4C0027AD
:10304000206B40B1A069401CA061E06900B101277C
:103050003846BDE8F081E668761CE66013D1606B07
:10306000006838B1502080F31188BFF34F8FBFF351
:103070006F8FFEE7606BA16B6163A063206A401CE9
:103080002062FFF72DFDA06ADFF87080864209D329
:10309000606B006880B1606BC068C5686868864214
:1030A0000DD2A0622068C06A00EB800158F82100B0
:1030B0000128CAD90127C8E74FF0FF30F1E7281DE2
:1030C000FFF7B4FDA86A18B105F11800FFF7AEFDCF
:1030D000E86A0121226981401143216100EB8001EE
:1030E00008EB8100291DFFF7D9FDE86A2168C96A4C
:1030F0008842CDD30127CBE724000020843C002068
:103100002DE9F0472C4D00242746286B38B1FFF7F6
:10311000D1FD286B401E2863286B40B146E050204B
:1031200080F31188BFF34F8FBFF36F8FFEE7A9685D
:10313000224E0120D1B3A6F1B40980463068E8B12F
:10314000F068C46804F11800FFF770FD201DFFF758
:103150006DFDE06A2A6908FA00F11143296100EB6C
:10316000800109EB8100211DFFF798FDE06A2968C5
:10317000C96A8842E2D3C5F81C80DFE70CB1FFF7CB
:10318000AFFCAC6944B14646FFF756FF00B1EE61B3
:10319000641EF9D10020A861E86938B10849012707
:1031A00038070860BFF34F8FBFF36F8FFFF7A2FDA3
:1031B0003846BDE8F087000024000020383D00209C
:1031C00004ED00E000000000000000000102030424
:1031D000060708090000000001020304203200086D
:1031E000351F000800000000000000008000000003
:1031F000010402000302044005030633070008002F
:103200000900194225402607281029DC2E882F2D79
:103210003000379038423C8F3D126F30FF00000085
:1032200064656661756C745461736B004C320008A0
:103230000000002084000000D8250008D0320008DB
:1032400084000020A4420000E825000800000000DF
:10325000AAAAAAAA000000000000000000000000C6
:10326000000000000000000000000000000000005E
:10327000000000000000000000000000000000004E
:10328000000000000000000000000000000000003E
:10329000000000000000000000000000000000002E
:1032A0000000000000000000000000000024F40006
:1032B00001000000100000000000000000000000FD
:1032C00000000000000000000000000000000000FE
:040000050800018965
:00000001FF
